:020000002928AD
:10000800FF00030E8301CE000A08CF008A018B1C73
:100018000F288B10A10A4F088A004E0E8300FF0E8E
:040028007F0E09003E
:0E002C00831203134D088A004C08820008005E
:10003A0016208A110A128000840ACC0A0319CD0AF2
:08004A00F003031D1D2808004E
:10005200E4210730831603139F0006148B170B1637
:10006200011387018501880106138613891009117E
:10007200831287018801061386138910091105105E
:100082008510051185150516851686183D29A201CC
:100092008030173AF000803022067002031CC32819
:1000A200861C5428C32809150919592889105A2869
:1000B20089148617861B5F280613602806172208F4
:1000C200233E84000008870003302207F00000303E
:1000D200A21BFF30F1000318F10A7008233E8400CE
:1000E200000888008516051605108515851005146B
:1000F20085120B30FB002630FC005D30FD00FD0B4D
:100102008028FC0B8028FB0B8028000000000808D8
:10011200003A031DC1288030173AF00080302206D1
:100122007002031CC128861C98288512C128220847
:10013200233EF000700884000008870070088400E5
:1001420000088800851605120B30FB002630FC00E3
:100152005D30FD00FD0BAB28FC0BAB28FB0BAB2885
:1001620000000000A20A0708003A031DC028080880
:10017200003A031DC02886140516051086148C2823
:10018200A20A4928CB0180300F3AF00080304B069A
:100192007002031C3C29861CCF283C29091109192D
:1001A200D4288910D52889148613861BDA280613C9
:1001B200DB2806170510051609150919E22889100A
:1001C200E32889148617861BE8280613E9280617F0
:1001D20085164B083B3E84000008870003304B071E
:1001E200F0000030CB1BFF30F1000318F10A700859
:1001F2003B3E840000088800851105150B30FB008A
:100202002630FC005D30FD00FD0B0529FC0B0529A5
:10021200FB0B0529000000000808003A031D3A29DB
:1002220080300F3AF00080304B067002031C3A29EE
:10023200861C1D2905153A294B083B3EF000700823
:1002420084000008870070088400000888000511F7
:100252008514CB0A0B30FB002630FC005D30FD001C
:10026200FD0B3129FC0B3129FB0B31290000000069
:100272001129CB0AC4284628861CB0298701880187
:100282002108013A031D4B2985150516851205140F
:10029200851005112108023A031D77290330A000B9
:1002A20080302006F0008030003A7002031C77296B
:1002B2002008003A031D62290330A0000330A10088
:1002C2007729851605120617200888000B30FB00D7
:1002D2002630FC005D30FD00FD0B6D29FC0B6D2905
:1002E200FB0B6D2900000000A00351292108033AED
:1002F200031D7F2905160510051585112108043AED
:10030200031DAF290330A00080302006F0008030AA
:10031200003A7002031CA9292008003A031D9429FF
:100322000330A000A929051185148914200887002B
:100332000B30FB002630FC005D30FD00FD0B9F29D9
:10034200FC0B9F29FB0B9F2900000000A0038529BD
:1003520085100514851585120130A1003D29462816
:02036200B129BF
:1003C800203084002C3083120313F000B730CC00A7
:0803D8000130CD001D200800DA
:02036E00033456
:02037000003457
:02037200003455
:1003740023342234213420341934183417341634F5
:100384001534143413341234113410340934083449
:10039400073406340534043403340234013400349D
:1003A4001534143413341234113410340934083429
:1003B400073406340534043403340234013400347D
:0203C400003403
:02400E004A2F37
:00000001FF
